:020000040800F2
:10000000680400209D0100080B1100081910000869
:1000100009110008D1030008A11100080000000028
:100020000000000000000000000000000F110008A8
:10003000D3030008000000000D1100081111000892
:10004000B7010008B7010008B7010008B7010008B0
:10005000B7010008B7010008D5030008B701000880
:10006000B7010008B7010008B7010008B701000890
:10007000B7010008B7010008B7010008B701000880
:10008000B7010008B7010008B7010008B701000870
:10009000B7010008B7010008B7010008B701000860
:1000A000B7010008B7010008B7010008B701000850
:1000B000B7010008B7010008B7010008B701000840
:1000C000B7010008B7010008B7010008B701000830
:1000D000B7010008B7010008B7010008B701000820
:1000E000B7010008B7010008B7010008B701000810
:1000F000B7010008B7010008B7010008B701000800
:10010000B7010008B7010008B7010008B7010008EF
:10011000B7010008B7010008B7010008B7010008DF
:10012000B7010008B7010008B7010008B7010008CF
:10013000B7010008B7010008B7010008B7010008BF
:10014000B7010008B7010008B7010008B7010008AF
:10015000B7010008B7010008B7010008B70100089F
:10016000B7010008B7010008B7010008B70100088F
:10017000B7010008B7010008B7010008000000003F
:10018000B7010008B7010008DFF80CD000F07AF8DA
:1001900000480047E1110008680400200648804735
:1001A00006480047FEE7FEE7FEE7FEE7FEE7FEE75C
:1001B000FEE7FEE7FEE7FEE785110008890100087B
:1001C0002DE9F05F0546002092469B46884606468C
:1001D000814640241BE0284641464746224600F01F
:1001E00041F853465A46C01A914110D31146184659
:1001F000224600F028F82D1A67EB01084F462246E8
:100200000120002100F01FF817EB00094E41201ECD
:10021000A4F10104DFDC484631462A464346BDE8E6
:10022000F09FD2B201E000F8012B491EFBD27047CB
:100230000022F6E710B513460A4604461946FFF7B2
:10024000F0FF204610BD202A04DB203A00FA02F11C
:10025000002070479140C2F1200320FA03F31943B4
:1002600090407047202A04DB203A21FA02F0002156
:10027000704721FA02F3D040C2F1200291400843B6
:1002800019467047064C074D06E0E06840F0010350
:1002900094E8070098471034AC42F6D3FFF778FF94
:1002A000D4120008F4120008464910B54A6822F436
:1002B00040324A604A6843681A434A6001684A68A3
:1002C00022F480724A6001684A68036942EA0322A4
:1002D0004A6001684A6822F040724A6001684A68D0
:1002E00083681A434A6001688A6822F400628A605F
:1002F00001688A68C3681A438A60816A6FF0706215
:10030000D14201688A6822F070628A6001688A6856
:100310000CD0836A1A438A6001688A6822F04052CE
:100320008A6001688A68C36A1A4301E022F0405279
:100330008A6001688A6822F002028A6001688A681D
:10034000037E42EA43028A6090F820100029016887
:100350004A680FD042F400624A6001684A6822F499
:1003600060424A6001684A68174C436A04EB4333B1
:100370001A4301E022F400624A600168CA6A22F46A
:100380007002CA620168CA6A838B104C04EB035383
:100390001A43CA6201688A6822F400728A6001689E
:1003A0008A6890F8303042EA43228A6001688A689D
:1003B00022F480628A6001688A68406942EA80208B
:1003C000886010BD0023014000E0FFFF0000F0FF47
:1003D000FEE77047012000F003BA000078B5002462
:1003E000009490F83C20012A19D0012280F83C208A
:1003F0000A6807230568092A13D9EE680A3A02EB4E
:10040000420293409E43EE600B788A680A3B03EBFE
:1004100043039A400368DD682A43DA6010E0022053
:1004200078BD2E6902EB420293409E432E610B7809
:100430008A6803EB43039A4003681D692A431A61E3
:100440004A681F23072A13D205686E6B521E02EBFF
:10045000820293409E436E630B790A885B1E92B2C0
:1004600003EB83039A4003685D6B2A435A6327E0DA
:1004700005680D2A12D22E6BD21F02EB8202934026
:100480009E432E630B790A88DB1F92B203EB830332
:100490009A4003681D6B2A431A6311E0EE6A0D3A15
:1004A00002EB820293409E43EE620B790A880D3B79
:1004B00092B203EB83039A400368DD6A2A43DA624F
:1004C000164B0568144A9D4206D10D68122D03D1C2
:1004D000556845F48005556005689D4218D10B6844
:1004E000102B01D0112B13D1536843F40003536038
:1004F000096810290CD10A490A4A0968B1FBF2F1CE
:1005000001EB8101490000E0491E00910029FBD167
:1005100080F83C40002078BD0023014000200140CD
:100520001800002040420F000068C06C704770B592
:1005300004004FF0000503D0206C002610B107E046
:10054000012070BD204600F01DF8666484F83C6010
:10055000206CC00610D4206C20F4885040F00200BB
:1005600020642046FFF7A0FE6664206C20F00200A5
:1005700040F00100206400E0012584F83C6028463A
:1005800070BD000010B586B0044614216846FFF720
:100590004FFE1149206888421CD110480021026892
:1005A00042F480720260006800F4807005900B488D
:1005B0001438026842F001020260006800F0010095
:1005C0000590022000900320CDE90101694604480E
:1005D00000F012F906B010BD00200140443802407E
:1005E000000002402DE9F041044600680D46816894
:1005F0004FF0000749050BD58068C00508D5206C71
:1006000040F02000206484F83C700120BDE8F081B7
:1006100000F0D4F906460FE0681C0DD025B100F0BB
:10062000CDF9801BA84207D9206C40F0040020645B
:1006300084F83C700320E9E7206800688007EBD568
:1006400021686FF012000860206C40F40070206494
:100650002068816811F0405F13D1217E89B9C16A99
:1006600011F4700F02D0806840050AD4206C20F489
:1006700080702064206CC00403D4206C40F0010022
:1006800020640020C2E7000018B50021009190F816
:100690003C20012A07D0012280F83C2002689368A0
:1006A000DB0702D011E0022018BD936843F001037C
:1006B00093602A4A2A4B1268B2FBF3F202EB420221
:1006C00000E0521E0092002AFBD102689368DB070B
:1006D00041D0036C40F20164A34343F4807303648C
:1006E00053685B0505D5036C23F4005343F4805332
:1006F0000364036CDB0404D5436C23F006034364FA
:1007000000E0416480F83C1016496FF0220313604A
:1007100049680068CA06144906D088421BD181681E
:1007200011F0405F13D016E08842F8D00F4A904293
:1007300003D1D1F80423D206F1D00D4A90420AD158
:10074000D1F8041301F01F011029E8D303E08168F8
:1007500041F080418160002018BD00001800002099
:1007600040420F00002301400020014000210140D1
:100770000022014090F83C1001290CD0012180F8A2
:100780003C1001688A6822F001028A600168896869
:10079000C90702D007E002207047016C21F488519C
:1007A00041F001010164002180F83C1008467047C7
:1007B00070B5044600F002F90546601C02D00448FA
:1007C0000078044400F0FAF8401BA042FAD370BD50
:1007D0000C0000200149012008607047080000203B
:1007E000044910B50A68024202D00860FFF7F2FF20
:1007F00010BD0000143C01402DE9F84F00224FF0DD
:10080000010803254FF00F0E0B6808FA02F423408D
:10081000A3426ED14E68012E05D0022E03D0112EB8
:1008200001D0122E12D186684FEA420C05FA0CF75D
:10083000BE43CF6807FA0CF7374387604668A64384
:100840000C79C4F30014944034434460C6685700E4
:1008500005FA07FC8C6826EA0C06BC403443C460E9
:100860004C68022C01D0122C13D1D40800EB840464
:10087000A346D4F8209054074FEAD46A0EFA0AF639
:1008800029EA06090E6906FA0AF646EA0906CBF8CD
:10089000206006680C7926EA0C0604F00304BC40CC
:1008A000344304604C68E40065D5364C266846F451
:1008B00080462660246822F0030604F480440094F5
:1008C000314C3444A446D4F808489607370F0EFA42
:1008D00007F6B4432D4EB04201D1002624E02C4E41
:1008E000B04201D101261FE02A4EB04202D10226B9
:1008F0001AE040E0284EB04201D1032614E0274E12
:10090000B04201D104260FE0254EB04201D10526A8
:100910000AE0244EB04201D1062605E0224EB04244
:1009200001D1072600E00826BE402643CCF808681F
:100930001E4E34684F689C43FF0300D51C4334604F
:100940001A4C241D26684F689E43BF0300D51E43E2
:100950002660164E083634684F689C43FF0200D567
:100960001C433460114E0C3634684F689C43BF0200
:1009700000D51C433460521C102AFFF445AFBDE87B
:10098000F88F00004438024000300140000002406F
:100990000004024000080240000C02400010024027
:1009A0000014024000180240001C0240003C0140BC
:1009B0000AB1816170470904FBE7000001488068C3
:1009C000704700000C000020024881680278114442
:1009D000816070470C0000200B4810B5016841F49D
:1009E00000710160016841F480610160016841F4B7
:1009F00080710160032000F06FF8002000F006F81D
:100A000000F024F8002010BD003C024070B50D4DF0
:100A100004464FF47A712878B1FBF0F00A4909686E
:100A2000B1FBF0F000F0E4FA48B9102C07D2002234
:100A30002146501E00F030F800206C6070BD01208F
:100A400070BD00000C000020180000200A4808B506
:100A5000016841F480410160006800F4804000902A
:100A60000548001F016841F080510160006800F0F6
:100A70008050009008BD000044380240002809DB87
:100A800000F01F02012191404009800000F1E020A8
:100A9000C0F8001170470000F0B40E4B1B680C4604
:100AA000C3F30223C3F10705042D00D90425191D42
:100AB000072901D2002300E0DB1E012606FA05F11A
:100AC000491E214099409E40761E16403143F0BC9D
:100AD00000F067BB0CED00E0064900F00702086873
:100AE0004FF6FF03184040EA0220034A1043086013
:100AF000704700000CED00E00000FA052DE9F0471A
:100B00000E46050065D0DFF81481D8F80000F7B272
:100B100000F00F00B04207D288F80070D8F800004B
:100B200000F00F00B04254D128683D4C810712D527
:100B3000400703D5206840F4E05020602878000783
:100B400003D5206840F4604020602068A96820F048
:100B5000F000084320602878C0072DD0304968682D
:100B60000839012812D0022813D0032811D00968AF
:100B7000890700292DDA216821F003010143216052
:100B8000FFF71CFF814641F2883A0EE009688903AD
:100B9000EFE709688901ECE7FFF710FFA0EB090117
:100BA000514502D90320BDE8F0872068696800F04C
:100BB0000C00B0EB810FEFD1D8F80010404601F0E7
:100BC0000F01B14207D90770006800F00F00B04272
:100BD00001D00120E7E72878400705D52068E968BB
:100BE00020F4E050084320602878000706D52068EC
:100BF000296920F4604040EAC100206000F018F844
:100C00002168084AC1F30311515CC84006490860D5
:100C100006480068FFF7FAFE0020C4E7003C0240E7
:100C200008380240C41200081800002010000020FC
:100C3000154810B5006810F00C02144813D0144980
:100C4000042A0FD0082A0ED10F4C241F22682368D3
:100C500002F03F025B0207D52068C0F38810A0FBBA
:100C6000010106E0084610BD2168C1F38811A1FB0F
:100C700000010023FFF7A4FA2168C1F30141491CD8
:100C80004900B0FBF1F010BD083802400024F40028
:100C900040787D012DE9F84F040076D02078DFF808
:100CA00038A3CE4DC00749D0DAF800105046C1F342
:100CB0008101012908D00068C0F3810002280AD10F
:100CC000281D0068400206D52868800336D5606874
:100CD0000028E2D032E06068B0F5803F10D0B0F577
:100CE000A02F286810D020F480302860286820F4D5
:100CF000802028606068A0B1FFF760FE06460CE027
:100D0000286840F48030F4E740F480202860F7E75A
:100D1000FFF754FE801B642873D828688003F7D53A
:100D20000CE0FFF74BFE064605E000BFFFF746FE6E
:100D3000801B6428F0D828688003F7D42078DFF877
:100D4000A08280074FF000093ED5DAF80010504627
:100D500011F00C0F09D00068C0F3810002280BD1FC
:100D60009D48001F0068400206D42868800715D5FA
:100D7000E068012809D111E0E068B8B10120C8F8A5
:100D80000000FFF71BFE064605E020E1FFF716FE18
:100D9000801B0228C0D828688007F7D528682169F9
:100DA00020F0F80040EAC10028600DE0C8F800908B
:100DB000FFF704FE064604E0FFF700FE801B022852
:100DC0001FD828688007F7D42078000722D5824EE4
:100DD000844861696C3671B101210160FFF7EEFD55
:100DE000074604E0FFF7EAFDC01B022809D8306877
:100DF0008007F7D50EE0C0F80090FFF7DFFD07464B
:100E000005E082E0FFF7DAFDC01B02287DD83068DC
:100E10008007F7D42078400768D5DFF8BCB10027F9
:100E20000BF1380BDBF80000C0000BD4DBF800102E
:100E300041F08051CBF80010DBF80000012700F0F2
:100E400080500090684E3068C00510D4306840F47F
:100E500080703060FFF7B2FD009005E0FFF7AEFD57
:100E60000099401A022850D83068C005F6D55A4E6D
:100E7000A068683601280FD00528306810D020F00F
:100E800001003060306820F004003060A068B8B124
:100E9000FFF794FD00900FE0306840F00100F4E7A8
:100EA00040F004003060F7E7FFF788FD0099411A31
:100EB00041F28830814266D830688007F4D50EE070
:100EC000FFF77CFD009007E0FFF778FD0099411ADD
:100ED00041F28830814256D830688007F4D42FB16F
:100EE000DBF8001021F08051CBF80010A069D0B3DE
:100EF000DAF800205146C2F38102022A4AD00228C1
:100F0000484607D0C8F8600000E03CE0FFF756FD17
:100F100004463BE04746C8F86000FFF74FFD064631
:100F200005E000BFFFF74AFD801B02282BD8286888
:100F30008001F7D4D4E907010843A16A2B4A490884
:100F400002EB0141626A41EA8211084394F82C10D5
:100F500040EA01612048001F016001203866FFF768
:100F60002DFD044605E034E0FFF728FD001B0228B4
:100F700009D828688001F7D52BE000BFFFF71EFDD8
:100F8000001B022802D90320BDE8F88F28688001E1
:100F9000F4D41EE00128F7D00868E26900F480016B
:100FA000914214D1226A00F03F0191420FD147F6DD
:100FB000C071626A0140914209D1A26A00F44031D5
:100FC000914204D1E16A00F07060884201D00120B2
:100FD000DAE70020D8E70000083802400038024075
:100FE00000004742800E4742007000400000FFFFB3
:100FF00010B5401EB0F1807F01D3012010BD4FF02D
:10100000E02460610F21601700F0CBF80020A061A0
:1010100007202061002010BDFEE700007FB50024FE
:1010200011480094019402940E490394C0E90014FD
:101030004FF0007104618160047680F820400B4914
:10104000C0E90A140125C561C46080F830404561DB
:10105000FFF76DFA0095CDE9015469460248FFF7A4
:10106000BDF97FBD002001401C0000200100000FE1
:1010700070B586B014216846FFF7DAF81E480024E0
:10108000016841F001010160016801F00101059171
:10109000016841F0080101600068184E00F0080086
:1010A000059022461E213046FFF782FC0125144898
:1010B0000095CDE9010469461248FFF79DFB1A200F
:1010C0000090CDE90154694630460394FFF794FB44
:1010D0000420CDE900050220CDE90204694630462E
:1010E000FFF78AFB002211460620FFF7D5FC0620F9
:1010F000FFF7C4FC06B070BD30380240000C02405F
:101100000000111000000240FEE770477047704772
:10111000FFF75ABC10B592B030216846FFF788F847
:1011200014210CA8FFF784F814480024016841F04A
:1011300080510160006800F08050119010480168F3
:1011400041F4804101600068069400F480401190F1
:101150000220009001200390102004906846FFF7C1
:1011600099FD0F20CDE90C040E940F9400210CA8DA
:101170001094FFF7C3FC12B010BD000040380240CD
:10118000007000400548016841F4700101600349A6
:101190004FF00060803908607047000088ED00E083
:1011A000FEE70907090E002804DB00F1E02080F8C3
:1011B0000014704700F00F0000F1E02080F8141DCB
:1011C000704702E008C8121F08C1002AFAD1704710
:1011D0007047002001E001C1121F002AFBD17047B7
:1011E000FFF7FAFBFFF796FFFFF742FFFFF716FF47
:1011F000304E314D314C3248FFF746FA0521304828
:10120000FFF7F0F92E48FFF78FF920702C48FFF711
:10121000B1FA3220FFF7CCFA207814280BD800223C
:1012200008213046FFF7C4FB002210213046FFF7AB
:10123000BFFB012217E0A0F11501092906D2002207
:1012400008213046FFF7B4FB012207E01E280ED329
:10125000012208213046FFF7ABFB00221021304667
:10126000FFF7A6FB002204213046FFF7A1FB286808
:10127000012806D1606820B9012202213046FFF71B
:1012800097FB6068092803DC21781939032907D204
:10129000002202213046FFF78BFB0020286003E08C
:1012A0002968012901D1401C60606420FFF780FAA1
:1012B000A1E70000000C0240080000200000002010
:1012C0001C000020000000000000000001020304D8
:1012D00006070809F4120008000000201C000000A6
:1012E000C2110008101300081C0000204C0400006C
:1012F000D211000800000000000000000000000003
:101300000100000010000000000000000024F400B4
:040000050800018965
:00000001FF
